{
  "_format": "hh-sol-artifact-1",
  "contractName": "AssetLock",
  "sourceName": "contracts/assetLock.sol",
  "abi": [
    {
      "inputs": [
        {
          "internalType": "string",
          "name": "name_",
          "type": "string"
        },
        {
          "internalType": "string",
          "name": "symbol_",
          "type": "string"
        },
        {
          "internalType": "address",
          "name": "tokenAddress",
          "type": "address"
        }
      ],
      "stateMutability": "nonpayable",
      "type": "constructor"
    },
    {
      "inputs": [
        {
          "internalType": "address",
          "name": "spender",
          "type": "address"
        },
        {
          "internalType": "uint256",
          "name": "allowance",
          "type": "uint256"
        },
        {
          "internalType": "uint256",
          "name": "needed",
          "type": "uint256"
        }
      ],
      "name": "ERC20InsufficientAllowance",
      "type": "error"
    },
    {
      "inputs": [
        {
          "internalType": "address",
          "name": "sender",
          "type": "address"
        },
        {
          "internalType": "uint256",
          "name": "balance",
          "type": "uint256"
        },
        {
          "internalType": "uint256",
          "name": "needed",
          "type": "uint256"
        }
      ],
      "name": "ERC20InsufficientBalance",
      "type": "error"
    },
    {
      "inputs": [
        {
          "internalType": "address",
          "name": "approver",
          "type": "address"
        }
      ],
      "name": "ERC20InvalidApprover",
      "type": "error"
    },
    {
      "inputs": [
        {
          "internalType": "address",
          "name": "receiver",
          "type": "address"
        }
      ],
      "name": "ERC20InvalidReceiver",
      "type": "error"
    },
    {
      "inputs": [
        {
          "internalType": "address",
          "name": "sender",
          "type": "address"
        }
      ],
      "name": "ERC20InvalidSender",
      "type": "error"
    },
    {
      "inputs": [
        {
          "internalType": "address",
          "name": "spender",
          "type": "address"
        }
      ],
      "name": "ERC20InvalidSpender",
      "type": "error"
    },
    {
      "anonymous": false,
      "inputs": [
        {
          "indexed": true,
          "internalType": "address",
          "name": "owner",
          "type": "address"
        },
        {
          "indexed": true,
          "internalType": "address",
          "name": "spender",
          "type": "address"
        },
        {
          "indexed": false,
          "internalType": "uint256",
          "name": "value",
          "type": "uint256"
        }
      ],
      "name": "Approval",
      "type": "event"
    },
    {
      "anonymous": false,
      "inputs": [
        {
          "indexed": true,
          "internalType": "address",
          "name": "from",
          "type": "address"
        },
        {
          "indexed": true,
          "internalType": "address",
          "name": "to",
          "type": "address"
        },
        {
          "indexed": false,
          "internalType": "uint256",
          "name": "value",
          "type": "uint256"
        }
      ],
      "name": "Transfer",
      "type": "event"
    },
    {
      "anonymous": false,
      "inputs": [
        {
          "indexed": false,
          "internalType": "uint256",
          "name": "uid",
          "type": "uint256"
        },
        {
          "indexed": true,
          "internalType": "address",
          "name": "owner",
          "type": "address"
        },
        {
          "indexed": false,
          "internalType": "uint256",
          "name": "amount",
          "type": "uint256"
        }
      ],
      "name": "assetLocked",
      "type": "event"
    },
    {
      "inputs": [
        {
          "internalType": "address",
          "name": "owner",
          "type": "address"
        },
        {
          "internalType": "address",
          "name": "spender",
          "type": "address"
        }
      ],
      "name": "allowance",
      "outputs": [
        {
          "internalType": "uint256",
          "name": "",
          "type": "uint256"
        }
      ],
      "stateMutability": "view",
      "type": "function"
    },
    {
      "inputs": [
        {
          "internalType": "address",
          "name": "spender",
          "type": "address"
        },
        {
          "internalType": "uint256",
          "name": "value",
          "type": "uint256"
        }
      ],
      "name": "approve",
      "outputs": [
        {
          "internalType": "bool",
          "name": "",
          "type": "bool"
        }
      ],
      "stateMutability": "nonpayable",
      "type": "function"
    },
    {
      "inputs": [
        {
          "internalType": "address",
          "name": "account",
          "type": "address"
        }
      ],
      "name": "balanceOf",
      "outputs": [
        {
          "internalType": "uint256",
          "name": "",
          "type": "uint256"
        }
      ],
      "stateMutability": "view",
      "type": "function"
    },
    {
      "inputs": [],
      "name": "decimals",
      "outputs": [
        {
          "internalType": "uint8",
          "name": "",
          "type": "uint8"
        }
      ],
      "stateMutability": "view",
      "type": "function"
    },
    {
      "inputs": [
        {
          "internalType": "uint256",
          "name": "amount",
          "type": "uint256"
        }
      ],
      "name": "erc20Lock",
      "outputs": [],
      "stateMutability": "nonpayable",
      "type": "function"
    },
    {
      "inputs": [],
      "name": "name",
      "outputs": [
        {
          "internalType": "string",
          "name": "",
          "type": "string"
        }
      ],
      "stateMutability": "view",
      "type": "function"
    },
    {
      "inputs": [],
      "name": "owner",
      "outputs": [
        {
          "internalType": "address",
          "name": "",
          "type": "address"
        }
      ],
      "stateMutability": "view",
      "type": "function"
    },
    {
      "inputs": [],
      "name": "symbol",
      "outputs": [
        {
          "internalType": "string",
          "name": "",
          "type": "string"
        }
      ],
      "stateMutability": "view",
      "type": "function"
    },
    {
      "inputs": [],
      "name": "totalSupply",
      "outputs": [
        {
          "internalType": "uint256",
          "name": "",
          "type": "uint256"
        }
      ],
      "stateMutability": "view",
      "type": "function"
    },
    {
      "inputs": [
        {
          "internalType": "address",
          "name": "to",
          "type": "address"
        },
        {
          "internalType": "uint256",
          "name": "value",
          "type": "uint256"
        }
      ],
      "name": "transfer",
      "outputs": [
        {
          "internalType": "bool",
          "name": "",
          "type": "bool"
        }
      ],
      "stateMutability": "nonpayable",
      "type": "function"
    },
    {
      "inputs": [
        {
          "internalType": "address",
          "name": "from",
          "type": "address"
        },
        {
          "internalType": "address",
          "name": "to",
          "type": "address"
        },
        {
          "internalType": "uint256",
          "name": "value",
          "type": "uint256"
        }
      ],
      "name": "transferFrom",
      "outputs": [
        {
          "internalType": "bool",
          "name": "",
          "type": "bool"
        }
      ],
      "stateMutability": "nonpayable",
      "type": "function"
    }
  ],
  "bytecode": "0x60806040523480156200001157600080fd5b50604051620018e9380380620018e98339818101604052810190620000379190620002a1565b828281600390816200004a919062000586565b5080600490816200005c919062000586565b50505080600760006101000a81548173ffffffffffffffffffffffffffffffffffffffff021916908373ffffffffffffffffffffffffffffffffffffffff1602179055505050506200066d565b6000604051905090565b600080fd5b600080fd5b600080fd5b600080fd5b6000601f19601f8301169050919050565b7f4e487b7100000000000000000000000000000000000000000000000000000000600052604160045260246000fd5b6200011282620000c7565b810181811067ffffffffffffffff82111715620001345762000133620000d8565b5b80604052505050565b600062000149620000a9565b905062000157828262000107565b919050565b600067ffffffffffffffff8211156200017a5762000179620000d8565b5b6200018582620000c7565b9050602081019050919050565b60005b83811015620001b257808201518184015260208101905062000195565b60008484015250505050565b6000620001d5620001cf846200015c565b6200013d565b905082815260208101848484011115620001f457620001f3620000c2565b5b6200020184828562000192565b509392505050565b600082601f830112620002215762000220620000bd565b5b815162000233848260208601620001be565b91505092915050565b600073ffffffffffffffffffffffffffffffffffffffff82169050919050565b600062000269826200023c565b9050919050565b6200027b816200025c565b81146200028757600080fd5b50565b6000815190506200029b8162000270565b92915050565b600080600060608486031215620002bd57620002bc620000b3565b5b600084015167ffffffffffffffff811115620002de57620002dd620000b8565b5b620002ec8682870162000209565b935050602084015167ffffffffffffffff81111562000310576200030f620000b8565b5b6200031e8682870162000209565b925050604062000331868287016200028a565b9150509250925092565b600081519050919050565b7f4e487b7100000000000000000000000000000000000000000000000000000000600052602260045260246000fd5b600060028204905060018216806200038e57607f821691505b602082108103620003a457620003a362000346565b5b50919050565b60008190508160005260206000209050919050565b60006020601f8301049050919050565b600082821b905092915050565b6000600883026200040e7fffffffffffffffffffffffffffffffffffffffffffffffffffffffffffffffff82620003cf565b6200041a8683620003cf565b95508019841693508086168417925050509392505050565b6000819050919050565b6000819050919050565b600062000467620004616200045b8462000432565b6200043c565b62000432565b9050919050565b6000819050919050565b620004838362000446565b6200049b62000492826200046e565b848454620003dc565b825550505050565b600090565b620004b2620004a3565b620004bf81848462000478565b505050565b5b81811015620004e757620004db600082620004a8565b600181019050620004c5565b5050565b601f82111562000536576200050081620003aa565b6200050b84620003bf565b810160208510156200051b578190505b620005336200052a85620003bf565b830182620004c4565b50505b505050565b600082821c905092915050565b60006200055b600019846008026200053b565b1980831691505092915050565b600062000576838362000548565b9150826002028217905092915050565b62000591826200033b565b67ffffffffffffffff811115620005ad57620005ac620000d8565b5b620005b9825462000375565b620005c6828285620004eb565b600060209050601f831160018114620005fe5760008415620005e9578287015190505b620005f5858262000568565b86555062000665565b601f1984166200060e86620003aa565b60005b82811015620006385784890151825560018201915060208501945060208101905062000611565b8683101562000658578489015162000654601f89168262000548565b8355505b6001600288020188555050505b505050505050565b61126c806200067d6000396000f3fe608060405234801561001057600080fd5b50600436106100a95760003560e01c806370a082311161007157806370a08231146101685780638da5cb5b1461019857806395d89b41146101b6578063a2429e54146101d4578063a9059cbb146101f0578063dd62ed3e14610220576100a9565b806306fdde03146100ae578063095ea7b3146100cc57806318160ddd146100fc57806323b872dd1461011a578063313ce5671461014a575b600080fd5b6100b6610250565b6040516100c39190610cba565b60405180910390f35b6100e660048036038101906100e19190610d75565b6102e2565b6040516100f39190610dd0565b60405180910390f35b610104610305565b6040516101119190610dfa565b60405180910390f35b610134600480360381019061012f9190610e15565b61030f565b6040516101419190610dd0565b60405180910390f35b61015261033e565b60405161015f9190610e84565b60405180910390f35b610182600480360381019061017d9190610e9f565b610347565b60405161018f9190610dfa565b60405180910390f35b6101a061038f565b6040516101ad9190610edb565b60405180910390f35b6101be6103b5565b6040516101cb9190610cba565b60405180910390f35b6101ee60048036038101906101e99190610ef6565b610447565b005b61020a60048036038101906102059190610d75565b6105e2565b6040516102179190610dd0565b60405180910390f35b61023a60048036038101906102359190610f23565b610605565b6040516102479190610dfa565b60405180910390f35b60606003805461025f90610f92565b80601f016020809104026020016040519081016040528092919081815260200182805461028b90610f92565b80156102d85780601f106102ad576101008083540402835291602001916102d8565b820191906000526020600020905b8154815290600101906020018083116102bb57829003601f168201915b5050505050905090565b6000806102ed61068c565b90506102fa818585610694565b600191505092915050565b6000600254905090565b60008061031a61068c565b90506103278582856106a6565b61033285858561073a565b60019150509392505050565b60006012905090565b60008060008373ffffffffffffffffffffffffffffffffffffffff1673ffffffffffffffffffffffffffffffffffffffff168152602001908152602001600020549050919050565b600660009054906101000a900473ffffffffffffffffffffffffffffffffffffffff1681565b6060600480546103c490610f92565b80601f01602080910402602001604051908101604052809291908181526020018280546103f090610f92565b801561043d5780601f106104125761010080835404028352916020019161043d565b820191906000526020600020905b81548152906001019060200180831161042057829003601f168201915b5050505050905090565b600061045233610347565b11610492576040517f08c379a00000000000000000000000000000000000000000000000000000000081526004016104899061100f565b60405180910390fd5b600760009054906101000a900473ffffffffffffffffffffffffffffffffffffffff1673ffffffffffffffffffffffffffffffffffffffff166323b872dd3330846040518463ffffffff1660e01b81526004016104f19392919061102f565b6020604051808303816000875af1158015610510573d6000803e3d6000fd5b505050506040513d601f19601f820116820180604052508101906105349190611092565b610573576040517f08c379a000000000000000000000000000000000000000000000000000000000815260040161056a9061110b565b60405180910390fd5b6000600560008154809291906105889061115a565b9190505590503373ffffffffffffffffffffffffffffffffffffffff167ffa8fcdcaeb9e44e8c81b42e668f356a57dfa356cc057e209bea31d4da036193f82846040516105d69291906111a2565b60405180910390a25050565b6000806105ed61068c565b90506105fa81858561073a565b600191505092915050565b6000600160008473ffffffffffffffffffffffffffffffffffffffff1673ffffffffffffffffffffffffffffffffffffffff16815260200190815260200160002060008373ffffffffffffffffffffffffffffffffffffffff1673ffffffffffffffffffffffffffffffffffffffff16815260200190815260200160002054905092915050565b600033905090565b6106a1838383600161082e565b505050565b60006106b28484610605565b90507fffffffffffffffffffffffffffffffffffffffffffffffffffffffffffffffff81146107345781811015610724578281836040517ffb8f41b200000000000000000000000000000000000000000000000000000000815260040161071b939291906111cb565b60405180910390fd5b6107338484848403600061082e565b5b50505050565b600073ffffffffffffffffffffffffffffffffffffffff168373ffffffffffffffffffffffffffffffffffffffff16036107ac5760006040517f96c6fd1e0000000000000000000000000000000000000000000000000000000081526004016107a39190610edb565b60405180910390fd5b600073ffffffffffffffffffffffffffffffffffffffff168273ffffffffffffffffffffffffffffffffffffffff160361081e5760006040517fec442f050000000000000000000000000000000000000000000000000000000081526004016108159190610edb565b60405180910390fd5b610829838383610a05565b505050565b600073ffffffffffffffffffffffffffffffffffffffff168473ffffffffffffffffffffffffffffffffffffffff16036108a05760006040517fe602df050000000000000000000000000000000000000000000000000000000081526004016108979190610edb565b60405180910390fd5b600073ffffffffffffffffffffffffffffffffffffffff168373ffffffffffffffffffffffffffffffffffffffff16036109125760006040517f94280d620000000000000000000000000000000000000000000000000000000081526004016109099190610edb565b60405180910390fd5b81600160008673ffffffffffffffffffffffffffffffffffffffff1673ffffffffffffffffffffffffffffffffffffffff16815260200190815260200160002060008573ffffffffffffffffffffffffffffffffffffffff1673ffffffffffffffffffffffffffffffffffffffff1681526020019081526020016000208190555080156109ff578273ffffffffffffffffffffffffffffffffffffffff168473ffffffffffffffffffffffffffffffffffffffff167f8c5be1e5ebec7d5bd14f71427d1e84f3dd0314c0f7b2291e5b200ac8c7c3b925846040516109f69190610dfa565b60405180910390a35b50505050565b600073ffffffffffffffffffffffffffffffffffffffff168373ffffffffffffffffffffffffffffffffffffffff1603610a57578060026000828254610a4b9190611202565b92505081905550610b2a565b60008060008573ffffffffffffffffffffffffffffffffffffffff1673ffffffffffffffffffffffffffffffffffffffff16815260200190815260200160002054905081811015610ae3578381836040517fe450d38c000000000000000000000000000000000000000000000000000000008152600401610ada939291906111cb565b60405180910390fd5b8181036000808673ffffffffffffffffffffffffffffffffffffffff1673ffffffffffffffffffffffffffffffffffffffff16815260200190815260200160002081905550505b600073ffffffffffffffffffffffffffffffffffffffff168273ffffffffffffffffffffffffffffffffffffffff1603610b735780600260008282540392505081905550610bc0565b806000808473ffffffffffffffffffffffffffffffffffffffff1673ffffffffffffffffffffffffffffffffffffffff168152602001908152602001600020600082825401925050819055505b8173ffffffffffffffffffffffffffffffffffffffff168373ffffffffffffffffffffffffffffffffffffffff167fddf252ad1be2c89b69c2b068fc378daa952ba7f163c4a11628f55a4df523b3ef83604051610c1d9190610dfa565b60405180910390a3505050565b600081519050919050565b600082825260208201905092915050565b60005b83811015610c64578082015181840152602081019050610c49565b60008484015250505050565b6000601f19601f8301169050919050565b6000610c8c82610c2a565b610c968185610c35565b9350610ca6818560208601610c46565b610caf81610c70565b840191505092915050565b60006020820190508181036000830152610cd48184610c81565b905092915050565b600080fd5b600073ffffffffffffffffffffffffffffffffffffffff82169050919050565b6000610d0c82610ce1565b9050919050565b610d1c81610d01565b8114610d2757600080fd5b50565b600081359050610d3981610d13565b92915050565b6000819050919050565b610d5281610d3f565b8114610d5d57600080fd5b50565b600081359050610d6f81610d49565b92915050565b60008060408385031215610d8c57610d8b610cdc565b5b6000610d9a85828601610d2a565b9250506020610dab85828601610d60565b9150509250929050565b60008115159050919050565b610dca81610db5565b82525050565b6000602082019050610de56000830184610dc1565b92915050565b610df481610d3f565b82525050565b6000602082019050610e0f6000830184610deb565b92915050565b600080600060608486031215610e2e57610e2d610cdc565b5b6000610e3c86828701610d2a565b9350506020610e4d86828701610d2a565b9250506040610e5e86828701610d60565b9150509250925092565b600060ff82169050919050565b610e7e81610e68565b82525050565b6000602082019050610e996000830184610e75565b92915050565b600060208284031215610eb557610eb4610cdc565b5b6000610ec384828501610d2a565b91505092915050565b610ed581610d01565b82525050565b6000602082019050610ef06000830184610ecc565b92915050565b600060208284031215610f0c57610f0b610cdc565b5b6000610f1a84828501610d60565b91505092915050565b60008060408385031215610f3a57610f39610cdc565b5b6000610f4885828601610d2a565b9250506020610f5985828601610d2a565b9150509250929050565b7f4e487b7100000000000000000000000000000000000000000000000000000000600052602260045260246000fd5b60006002820490506001821680610faa57607f821691505b602082108103610fbd57610fbc610f63565b5b50919050565b7f4e6f742073756666696369656e742062616c616e636500000000000000000000600082015250565b6000610ff9601683610c35565b915061100482610fc3565b602082019050919050565b6000602082019050818103600083015261102881610fec565b9050919050565b60006060820190506110446000830186610ecc565b6110516020830185610ecc565b61105e6040830184610deb565b949350505050565b61106f81610db5565b811461107a57600080fd5b50565b60008151905061108c81611066565b92915050565b6000602082840312156110a8576110a7610cdc565b5b60006110b68482850161107d565b91505092915050565b7f72616e73666572206661696c6564000000000000000000000000000000000000600082015250565b60006110f5600e83610c35565b9150611100826110bf565b602082019050919050565b60006020820190508181036000830152611124816110e8565b9050919050565b7f4e487b7100000000000000000000000000000000000000000000000000000000600052601160045260246000fd5b600061116582610d3f565b91507fffffffffffffffffffffffffffffffffffffffffffffffffffffffffffffffff82036111975761119661112b565b5b600182019050919050565b60006040820190506111b76000830185610deb565b6111c46020830184610deb565b9392505050565b60006060820190506111e06000830186610ecc565b6111ed6020830185610deb565b6111fa6040830184610deb565b949350505050565b600061120d82610d3f565b915061121883610d3f565b92508282019050808211156112305761122f61112b565b5b9291505056fea26469706673582212204ba4dbee49d23eb53e0938ab04e014fd3722778067c32a3113e04c65659f361d64736f6c63430008140033",
  "linkReferences": {},
  "deployedLinkReferences": {}
}